:100000000100000000000000000400000094511AEC
:100010001CF09FE51CF09FE51CF09FE51CF09FE5A0
:100020001CF09FE51CF09FE51CF09FE51CF09FE590
:1000300024440ECBC8750200A0750200A47502000E
:10004000A8750200AC750200B0750200B47502001C
:10005000C1750200000000EAEC8500EA28008FE28A
:10006000000C90E800A08AE000B08BE001704AE24A
:100070000B005AE1E585000A0F00BAE814E04FE2F0
:10008000010013E303F0471013FF2FE1387C020057
:10009000787C02000030A0E30040A0E30050A0E321
:1000A0000060A0E3102052E27800A128FCFFFF8A44
:1000B000822EB0E13000A128003081451EFF2FE1E3
:1000C00004309FE503308FE013FF2FE1851A020013
:1000D0000020704710B5144C206800280CD100F0A7
:1000E00027FD2060114A2021A0600BF3A4F9104ADB
:1000F000606820210BF39FF910BD10B50A4C2068F1
:10010000002808D0002213210BF395F920680BF387
:1001100076F90020206010BD0200034810B5006889
:1001200068210BF388F910BDB0F500C0851B0200F3
:10013000A31B020010B527F094EA05F33FFF00204F
:1001400010BDB64810B5006800022FD5B44CB54AB2
:100150000020C11C09016161236981005350031D06
:100160001B01636123698918801C0C284B60F0DB3C
:10017000AD48FFF7D1FF27F0D8EAFF21AB4A2D3178
:1001800002E0401C8842FCDB50780028F9D0A848E7
:100190006061A8482061012040036061A648206199
:1001A000A348E03860610520206105E09E48401CBE
:1001B000FFF7B2FF27F0B8EA012010BD9B4910B548
:1001C000486000F03DFF10BD202800D3FEE79B4AA9
:1001D00080001358002B00D0FEE71150002070471C
:1001E000964A002180001150080070470268836819
:1001F000C1681000184770B5052804D2904D8400DE
:100200002B59002B01D0012070BD2C238C4E434371
:10021000DC3E9B192B5135000401F0352851601943
:10022000C2608160002141608649196158610020E7
:1002300070BDFEB50E001700052815D280490201D9
:100240001431551869687E4B840000290DD10122B4
:1002500001970096029218594369026907F390FAD0
:10026000002801D101206860FEBD18591D0007F368
:10027000C3FA28593A00310007F370FA285907F3F6
:100280005DFAFEBD694970B50878401C0006000E95
:100290000870012149044018FFF73EFF6A4D6C6A5F
:1002A000E00705D003F388EF0BF318F9A81768628D
:1002B000664EA0070CD5A86A02218843A8622020B8
:1002C000F060491F6962B1680143B1600BF3FEF849
:1002D000600705D5A86A04218843A8620BF31FFCB8
:1002E00020070AD5A86A08218843A8628020F06008
:1002F000C9436962B1680143B160012070BD70B546
:100300000124524D8440EC60002022F037FCA868A4
:100310002043A860012070BD01214C4A814010B5E6
:10032000D1600F3800D5FEE7022800DBFEE7484C1D
:100330000023800004192360454C403400190362F7
:10034000906808439060012010BDF8B5414DEC68FD
:10035000E00702D0A817E8600440200606D58020F8
:10036000C043E8608020844300F03DFD200407D5B1
:100370000126F603300000F036FDF043E860B44398
:100380006003400F06D00720000421000140C9434C
:10039000E96084432002000F09D00F273F052600A3
:1003A0003E40300000F0D4FCF043E860BC43E00085
:1003B000400F09D00727BF0626003E40300000F05E
:1003C0005FFCF043E860BC43E0060FD51020C0435B
:1003D000E8601020844322F0C1FA002806D004F01F
:1003E000EDFE002802D0102000F0ACFB002C05DA56
:1003F0000120C00700F05FFC1748E86013498868D7
:100400000122920510438860F8BD104B3AF3F46462
:1004100001000000FC030000000400005AEF5E131E
:100420000122920510B5DA60FFF799FF012010BD97
:100430000031008080290080006102C0400001007E
:10044000F47C0200F0200000FF0C0000070080FF99
:10045000D0430004D87E0200DD010000003400809B
:100460000030008040E8008080220080FFFFFF7F96
:1004700030B504002020208165692018AD7A057010
:100480006469E47A44700171090A4171110A827148
:10049000C171190A8370C17030BDF7B50700487883
:1004A0000E00097805020D43203528003430010480
:1004B000090C0022FF481DF36BF8040021D028002E
:1004C0001430A08067612027E019142127811CF3D4
:1004D0009EEB2B04029A1B0C14212000FFF7C8FF8F
:1004E0003420208120182A0031001CF3CAEA0021A0
:1004F000200021F0F2FB207B202804D1200021F0F5
:10050000DDFB0020FEBD278124F0E5F8002802D0A5
:1005100005200AF0B4F921F095FBE84B0500E64808
:1005200021001C68002200680523A047280021F054
:100530008DFB0120FEBDFFB50120904083B0039FDD
:100540000406240EFF374137F8790E0015002042CB
:100550002FD1FF229132462301A902A805F0E9F824
:10056000002826D0F87917212043F871019C103417
:1005700020001CF34CEB0698002801D1052000E078
:100580000D20607225722000627A0C990A301CF3EB
:1005900078EA310006220C31A01C1CF372EA607A62
:1005A00001990A308872000AC8720299039805F00E
:1005B0008BF807B0F0BDFFB59FB0060008003768A4
:1005C0000021179121997C69002910D040301E909C
:1005D0001CF398EB229905004118C07820314006A1
:1005E00002D4B88823B0F0BD2888682801D800203C
:1005F000F8E719AA18910092219918981AAA17AB2E
:1006000010F308F9280010F32CF9002853D0AC4857
:10061000002104AA01AB07C318ABAA4A00921D79B6
:1006200010AB1A7F38002B001AA90EF34CFB050003
:100630002DD12000FF304130C179090624D5002C8E
:100640000CD00521C90161180968002906D018AB32
:100650001A79920068328B585B1C8B50C17949061D
:10066000490EC1711E981CF34EEB18AB1D792199F0
:100670002A01521B52180E320092010010AB1B7F50
:100680002A002000FFF757FF00203060AFE73560F9
:1006900028891E9940191CF346EB0088A880200089
:1006A000FF30413018AB1B7901263200C1799A40E6
:1006B0009143C1711DE010AB197F009101952A880B
:1006C00018991898643A091D1AAB12F3A8FD060090
:1006D0001CD0200018AB1A79FF3041300123C179BA
:1006E00093409943C171288808382880B888083811
:1006F000B880002C08D00520C00120180068002810
:1007000002D0416E491C416630006BE7002C14D0CA
:100710000520C0012018016800290ED018AB1A79F5
:10072000920068328B585B1C8B5001680A69521C1E
:100730000A610068C168491CC1601E981CF3E2EAA6
:10074000010018AB1879219A03011B1A9A180E326E
:100750000092020010AB1B7F2000FFF7ECFED3E7F6
:1007600000280CD00521C90141180868002806D0CE
:100770000269521C02610868C16C491CC16470475F
:10078000FFB583B004001E000C9F0E9D24F054FDA5
:10079000002820D0607A02281DD0082E1BD3082FF5
:1007A00001D3012005E738001DF378FB030080002A
:1007B00055250019ED00119A109940196D4607C58D
:1007C000580057210019C90043180D9A059904983B
:1007D0000FF374FFEDE60FA807C86C462B0007C4A3
:1007E000F3E7F7B592B014000F00129800680D906F
:1007F00000200A900D9845690800403011901CF3C4
:1008000082EA06002430099028000CF0F9FF21004C
:100810002C311091091D203700280F91F976C9421B
:1008200001000000F80700000004000009358D7F7A
:1008300022D0109807AA08A903AB07C36B46E0793A
:100840000F9A0107387E090F4007400F07C30021A8
:10085000B078099A03092800FFF79CFF00280BD005
:10086000002D08D00520C001281800680028F8D005
:10087000016D491C016595E030886828FBD922008C
:100880004C3268380304111F081F0692021F05919D
:10089000049003920C3938381C3A0291019000926E
:1008A000387E1B0C47077F0F1A00099930003B0068
:1008B00012F3D7FB070030000FF3DDFF002849D00B
:1008C00000200BAA0AA909E078040004B4F500C0CE
:1008D000F0F500C0306102C0782401C0009101929F
:1008E0000A900D9B099A310038000FF3A4FE0028EE
:1008F00058D0934A0092934A934B0D9831001CF3C1
:1009000053FF002802D1129908604BE012990600AB
:1009100008600189081811991CF30EEA0E900A98D4
:1009200000284AD00BAA009209990E9823003200A1
:100930000FF3B0FE070040D1002D08D00520C00104
:1009400028180068002802D00168491C01600E9830
:10095000807922E0002F28D03807800F0FD0002D9B
:1009600020D00520C0012918086800281AD0C26CC0
:10097000521CC26408680169491C016112E0B80791
:1009800010D5002D08D00520C001281800680028C7
:1009900002D00168491C0160B079C107C90F280065
:1009A00026F0DAEE002015B0F0BD30881438308023
:1009B0000D980D99808814388880079C6B461A8C96
:1009C00010990F9823000FF380FE002F0AD1002DFD
:1009D00008D00520C00128180068002802D0416E08
:1009E000491C41660120DEE7F7B582B0140007001C
:1009F0000068009001900398002540301CF38CE9BA
:100A000006000198F1784069490605D42030807EBF
:100A1000400731D401252FE0002C02D1002005B081
:100A2000F0BDA17AC90720D0E0790007000F0128A6
:100A300005D1039922006846FFF7DDFE05E0039922
:100A4000220004236846FFF7C0FD050000983860C7
:100A5000B079C00710D1002D0ED0A07980070BD53A
:100A6000A07AFD210840A07206E00521C9014018C6
:100A700000688168491C81602800D0E7F3B589B01F
:100A800005000A98002814D02C896E69611920226B
:100A900001A81CF300E86B46987901AF0007810FAD
:100AA0000120884029490988084204D1280021F002
:100AB0000FF90BB0F0BD200020216C1820382981DF
:100AC0002071000A6B466071988B00092072000A41
:100AD0006072B07A2070F07A6070A0360E20305EBE
:100AE00023F017FB20730A20305E23F005FB6073B0
:100AF000FF20A0720A9A3B002100280021F0F8F99B
:100B00000520A0710020E071012060742074A88885
:100B1000A070000A22000B32E0700A98D11C1DF36D
:100B200062F821F099F80B4B060009481C68002276
:100B3000290000680523A047300021F091F8B8E7AC
:100B40006C2401C0742401C0306102C02C04000474
:100B5000B4F500C0F0F500C0010002A010B50AF322
:100B600032FC10BD7364696F0000000010B5040012
:100B7000C0200DF076FA00F00AFAE00602D50BF07C
:100B800048F810BD0AF0E9FF10BD0020EEE70000B4
:100B9000052803D259498000085C7047FF20704740
:100BA0000A00032010B5FFF7F3FF904201D1FFF7D1
:100BB000ECFF10BDFF280BD0504A00218B00D35C06
:100BC000834202D10806000E7047491C0529F5D35F
:100BD000FF207047FF280CD0484A00218B009B184B
:100BE0005B78834202D18800105C7047491C05295C
:100BF000F4D3FF207047052804D2404980004018F4
:100C000040787047FF207047FF280CD03B4A0021F6
:100C10008B00D35C834203D18800801840787047F2
:100C2000491C0529F4D3FF207047FF2840C36148C1
:100C300001000000F40B000000040000FD5AF8CB96
:100C40000CD0334A00218B00D35C834203D188004F
:100C5000801880787047491C0529F4D3FF2070471D
:100C60002B4A00218B00D35C834206D18800801878
:100C7000C0784007C017401C7047491C0529F1D3B4
:100C80000020704770B505000C00100000F043F91B
:100C9000200000F0C6F82800FFF7A6FF022805D0C4
:100CA000032803D0042801D0052803D1200000F038
:100CB0006DF870BD20000DF010FA70BD70B5040025
:100CC000144DC00004D52A00A9040C20FFF7DAFF58
:100CD000200105D50122D20211040B20FFF7D2FF1B
:100CE000600105D501212A0089060A20FFF7CAFF05
:100CF00070BD0120C00310B500F00DF90120C00740
:100D000000F08FF80449C86880229043C86010BD85
:100D10007CF800C00004000000280080F3B581B01A
:100D20000F000198FFF750FF05000198FFF776FFCD
:100D300006000198FFF783FF0400032D07D1042E5E
:100D400005D1102000F0E7F8B00400F073F8002F90
:100D500016D10198FFF784FF002811D0231F1CF340
:100D6000C0E8060F0F0F0F07040F0021102005E049
:100D70002649A8004018C0780021C00809F321FEC8
:100D8000FF2201991000FFF715FFFEBD10B504000A
:100D9000C00203D501210220FFF7C0FFA00203D546
:100DA00001210320FFF7BAFF600203D501210420CF
:100DB000FFF7B4FF200203D501210520FFF7AEFFA6
:100DC00001200007844205D04010844202D0401028
:100DD00084421AD1FF208206A11808D0891804D0B5
:100DE000C206891804D10C2002E00B2000E00A2082
:100DF000FFF7FAFE022805D0032803D0042801D00B
:100E0000052802D10121FFF789FF10BD7CF800C041
:100E100013490A6802430A608A6802438A60012013
:100E200070470F490A6882430A608A6882438A6071
:100E3000012070470A49C043C8600120704710B5BF
:100E4000074C8034216962690F23DB0199439A437F
:100E5000002801D01A4300E019432161626110BDEE
:100E60008022008083480068416801225204914337
:100E7000416070477F480068416801225204114375
:100E8000416070477B480068816B0901090C01D003
:100E900000207047816B002904DA816B0906090F75
:100EA000FBD100E0806B01207047724909688A69B4
:100EB000120C120402438A6170476E480068816B0D
:100EC000C907FCD041680122D203914341607047B9
:100ED000684909680A6B086348680122D203104315
:100EE0004860704763480068406A70476149096814
:100EF00080314A6A0001120F1207000902434A6258
:100F000070475C480068C06A70475A490968CA69F6
:100F10008243CA61704757490968CA690243CA6176
:100F20007047544909680A6A02430A627047514986
:100F300009680A6A82430A6270474E480068803036
:100F4000416849084900416070474A48006880305C
:100F50004168012211434160704770B5454D2868D2
:100F6000803001680122114301600168424C49024E
:100F700005D50168A14301600A2026F08AEB2868A4
:100F8000803001682143016070BD3A48006801006B
:100F900080310A68520852000A60816BC900FCD493
:100FA00070473448006880300168334A91430160DB
:100FB0007047304800688030C068704770B52D4D6C
:100FC00029680E690C00012109040E4326612100E5
:100FD00080310E69086148694B618869F020886139
:100FE000C869CA61A06810210843A060A0682022D7
:100FF0009043A0602868416B436B8B42FCD0FFF7A5
:10100000D8FF0028F6D128688168114381604168C3
:10101000012252031143416070BD164800688030C0
:10102000006970471348006881682022114381607D
:10103000704710480068816820229143E3BF075041
:1010400001000000F00F000000040000AE802BA79C
:10105000816070470C49096880310A681F23DB05ED
:10106000C0069A43000902430A6008680122120779
:101070001043086070470448006880300168FF2210
:10108000521C114301607047C4F500C000004000CD
:1010900038B500240C4D01E08047641CA00028589E
:1010A0000028F9D109480B4902680092084A0A4809
:1010B0000A4B07F355FC0AF07AFC0948016800293D
:1010C00001D00020884738BD60B602C0A8F800C033
:1010D000704F00047004000464040004008002C027
:1010E000C8F500C0FEB50D001600089F0A9A0999C0
:1010F000002800D1FEE70468002C00D1FEE7029230
:10110000019132002900200000970EF0DDFCFEBDA9
:1011100010B506F319FA0006000E10BD10B506F35F
:10112000A5F90006000E10BD002810B501D006F389
:10113000D9F910BD38B514006A4606F333F90098A2
:101140002070002038BD10B5040006F385F820603B
:10115000002010BD10B506F355F910BD7CB50D008B
:101160001600079A0699002800D1FEE70468002CB3
:1011700000D1FEE7019200913200290020000EF01C
:1011800081FD002800D165637CBD10B5416B0EF078
:1011900090FD10BD7CB50C001500069A002800D10A
:1011A000FEE70068002800D1FEE7002101920091CF
:1011B0002A0021000EF0B6FC7CBD10B50EF0D1FC6B
:1011C00010BD002810B500D1FEE70068002800D14E
:1011D000FEE70EF03DFD10BD002810D00521C9012D
:1011E0004218116800290AD00B695B1C0B61116859
:1011F000CB685B1CCB6011680A6E521C0A66FF301C
:101200004130C17980221143C1717047704706484F
:10121000142110B51BF3EEEC0448012101700021EC
:101220008160C16010BD0000306102C06C2401C04B
:101230009048416810221143416070477047F1B5F2
:1012400082B0002620F01CFD00908B480021006831
:10125000012806D18848029A00694369934200D167
:10126000416186484468019425001BE0A00087186E
:10127000B868029B4169994206D1761C002120F092
:10128000EFFC0020B86008E0A90089188860002001
:10129000102D019500D0681C05000020102C00D0F6
:1012A000601C0400754A00201168102900D0481CF9
:1012B000A042DBD1002E07D070484168A94201D17D
:1012C000446001E0019901606B484068012807D142
:1012D0006B480299006842698A4201D1002141614C
:1012E00066484C30446801942500002728E02420FB
:1012F0006043029B8618F0684169994208D17F1CBF
:1013000021F0CEFD30000C3024211BF374EC12E0F0
:10131000242169438B18D8603069186131001800A6
:10132000143114301C221BF334EC0020372D0195AE
:1013300000D0681C05000020372C00D0601C040081
:101340004E4A00204C321168372900D0481CA04278
:10135000CDD1002F08D049484C304168A94201D175
:10136000446001E001990160009820F08DFCFEBD11
:10137000F8B50500002420F083FC3F490A68012AE3
:1013800004D109694969A94200D101243B4F0026D3
:101390003B6879680BE08A00D21992685269AA42C8
:1013A00000D101243200102900D04A1C1100002C69
:1013B00005D13200102B00D05A1C8A42EBD120F00C
:1013C00063FC2000F8BD70B50E0004981D00018973
:1013D0000C1820784007400F90420FD1E06D290093
:1013E000FF31801D06224A3120F06EF9002805D118
:1013F000682006552100280021F0ACFD70BDFFB526
:1014000081B01E001C480168012906D1026901A8AB
:10141000009207C83300FFF7D6FF184900270D6870
:101420003800102D00D0681C4C68A04215D00EE08A
:101430001249A0004018826801A8009207C8330032
:10144000FFF7C1FF3800102C00D0601C3A7F30DE5F
:1014500001000000EC1300000004000011450E1410
:1014600004003800102D00D0681CA042EAD105B05D
:10147000F0BD07480021C943002206C04430426045
:10148000016004498160704700A000903C040004A2
:1014900098060004504400040020704710B512F074
:1014A00071F910BD0722010010B5FF48406921F015
:1014B0009DFA002010BDF7B584B000242500FC483B
:1014C0000194FA4E42690499430619430A43426162
:1014D000F74980310A6907231B041A430A61F44B58
:1014E000C0331968082291431960F2490B6893438D
:1014F0000B60806902900AF301F80090EE480F003B
:10150000FEF73CFEE8482AE009F3F8FF009A0023C2
:10151000801AE54AB941D1649064E84A121A8B41B5
:1015200009D2E1488168491C8160E1494869049A0F
:101530009043486116E0DE486D1C80690290E048E7
:1015400000697F214905084003D001214905411A5E
:1015500003D1864201D1641C00E0002406000698F5
:101560008442D1D3D04E0120B1680004002907DDA8
:1015700006998C42F16801D3491C00E00918F1601A
:10158000FEF7FCFD09F3BAFF009A801AB941F16435
:10159000B06402990498884301D001200190C549A4
:1015A0000868082210430860C149C0310868104328
:1015B0000860BF4A8032116907200004814311612D
:1015C00005980560019807B0F0BDF8B50700B64D65
:1015D00009F394FF0E00B8490400F13938000FF305
:1015E00070F909F38BFF041B686CB1410B000021FB
:1015F000001B994100D36C6C6C64F8BDF1B584B0EC
:10160000A94C206B401C206309F378FFA94F0D0003
:10161000403F0290FE6AAB48F862A548406921004D
:101620000190A9481E222431FFF745FF002802D06F
:10163000206C401C2064FE629D488069E06209F3D2
:101640005DFF029AE76B861AA9410D007A1C002003
:10165000A06BE16B002348430021801969411BF313
:1016600016E8A063E06B401CE063606B0021801B08
:10167000A94100D3666B6663606AA16A884201D99A
:10168000606A00E0A06AA062049A01998E48114342
:10169000884301D0FFF799FF226C616B112018F08D
:1016A00049FE05B0F0BD89480088002804D088496B
:1016B00001200978042900D0002070472020F1E69D
:1016C000F8B50024784D6868002801D12000F8BDE5
:1016D00020F0E0FA0090286A01273B00002800D0A3
:1016E00000230020390081402A6A0E00164202D1F0
:1016F0000C000A432A62401C002C01D11F28F1DD96
:10170000002B04D010F3DFFBFF20FFF777FF0098DA
:1017100020F0C4FADAE770B5040020F0BBFA050047
:10172000614800224168002901D1226070BD236810
:10173000016A99430162226007D1FF20FFF745FF4C
:1017400010F3B9FB0120FFF7ADFE280020F0A6FA48
:1017500070BD38B5040041696A4622F0A1FE002838
:1017600002D12000FFF79AFE002802D120001BF3CF
:101770000DFF38BD38B505224B4C0021606921F0C2
:1017800035F9544805220068002121F02FF902E0C4
:1017900000981BF3FBFEA06904220023694621F098
:1017A00021F90F28F4D14C48002505704B4812212F
:1017B0001BF32AEA4A4865700560002038BD6023A3
:1017C0005843484A10B58418A088E288824201D163
:1017D000012010BD8200A21892680A601421401CEA
:1017E0001BF3C6EEA180A06D401EA065002010BDB9
:1017F00070B50C00417A160002290AD105F045FFA8
:10180000012806D130001C3802210AF022F90128F3
:101810000BD06021614333480C18E5881421681C03
:101820001BF3A6EEA088884201D1012070BDA8005C
:1018300020188660E180A06D401CA065002070BD6E
:101840002848602110B51BF3E0E917490020C86162
:1018500010BD001F10B50406240E042CA80A992FF1
:1018600001000000E817000000040000429FDD783E
:1018700013D2602060432049401860211BF3CEE959
:101880000E4A0120D169A04008431021A140014324
:10189000FF20401CA0408143D16110BDF8B5041F5A
:1018A000042C45D220F000FA0600044DFF20401C15
:1018B000E969A04008422BD024E00000D0030004D6
:1018C0004523010040A2008000A70080F000010035
:1018D000A086010080A80080FF7FFF7FFF0300003B
:1018E0001C3E01C0C5F700C0687D02006004000412
:1018F0001C4600045C7D02009C44000400981C38D7
:1019000021F05CFB20006946FFF763FF0028F5D05B
:10191000FF211231E869A1408843E86160206043FB
:101920003949401860211BF37AE9300020F0C0F9F2
:10193000F8BDF8B5041F042C25D220F0B5F9060037
:10194000324DFF20401CE969A04008420BD004E062
:10195000009800211C3820F097F920006946FFF715
:1019600038FF0028F4D0FF211231E869A1408843F4
:10197000E861602060432449401860211BF34EE970
:10198000300020F095F9F8BDF8B5002425001E4E72
:10199000FF277F1C602060431C4935543800C9690B
:1019A000A040084202D00120FFF786FD641C042CF1
:1019B000F0DBF8BDF8B5050020F076F90600144913
:1019C000144825F0F6EEFFF785FE00902800FFF79B
:1019D0004AFC00242006000E290011F07BFB641C49
:1019E000042CF7DB6846FFF7A0FE300020F060F91A
:1019F000F8BD09480088002805D008480178032967
:101A000001D10421017070479C440004D0030004FC
:101A10001111FFFFBBBBBBBB1C3E01C0C5F700C023
:101A2000FF49002048607047FD49002088607047EA
:101A3000F7B582B00600FA4DA86800284AD1FF2108
:101A4000F84800222D311BF3D5FD040042D00120BF
:101A50000221A86021736661617B0143F2486173D2
:101A6000A061AC202081FF205130825BEF480092C2
:101A70000068320003795920C00031187E322000FE
:101A80000EF397FD07001C202518208170212800E7
:101A90001BF3C4E8280060300499019041723000C3
:101AA000EF6511F08AFFE34AA8701279E0499206C7
:101AB00005D4002803D0A8684A071043A8600198FD
:101AC00003220272200011F0DBFE002805D1200065
:101AD0001BF366FD002005B0F0BD0120FBE7FFB55C
:101AE00087B00700002004900A98002803D0CC4853
:101AF000406800287ED1FF242D3402E00120FFF74A
:101B000027FB2100380004F082FB0500F6D028896D
:101B10004619380023F0C2FB002801D00C2000E059
:101B2000042059210590387AC9003A0079187E328C
:101B30000628019200910AD11300059ACB330221A5
:101B400030000EF373FDF0784008400008E0130009
:101B5000059A022130000EF369FDF0780121084357
:101B6000F070F078EF21084008992C00C907C90EE1
:101B70000843F070FF20C01C3071000A7071002013
:101B8000307070701C2028810220290028733031A9
:101B90001C340391702120001BF340E821006031C8
:101BA000119806917728487201D0782804D1A0684E
:101BB000012149060843A060E6650A9800280AD07A
:101BC0000120C0079649A06001204860697B01435D
:101BD00099486973A8610020208005980C2821D1BC
:101BE0000999380023F066FB41072078490FC008A7
:101BF000C00000E06CE0084341072070490F380046
:101C000023F074FC0101E06D028B1207120F0A43EE
:101C10000283E06D017E09090901017620789F2188
:101C200008402070099A21003800002323F070FB3F
:101C30001098804E002806D10699092008723800B5
:101C400011F0BBFE1FE00021380016F027FD03282D
:101C5000A0701CD93079C00604D576484030807D0C
:101C600040060CD5787A022811D10B20DD1BA0E5A7
:101C700001000000E41B000000040000B6F0A8CC46
:101C800080013818006A13214901401800790007C3
:101C900007D50321380011F044FEA0700120000395
:101CA00004903079800607D4A078002804D0A0687A
:101CB000012189070843A06003990498C86139008D
:101CC000280002AA22F000FC01280BD00499280069
:101CD00011F0E0FD002805D128000CF003F92800E0
:101CE0001BF368FC0BB0F0BDFFB5FF212D310600E2
:101CF00085B004F096FA07007ED03000FF30317ACC
:101D00004A300129049002D0707A022804D1049943
:101D1000300023F0C2FA02E0300023F0C9FA6B462B
:101D20000390187EF32108400830187603990029A3
:101D300003D00007000FC03002E00007000F403062
:101D40006B46187638893200C5195920C0007E329A
:101D50003118019200911C7E049B2007810F2209FB
:101D600028000EF36DFCFF20C01C2871000A68716A
:101D70006B46AC70587EE870707A02280DD1022153
:101D8000300025F024EDE9788A06D20F1043C00711
:101D9000DF22800E11400143E9701C2038813C187D
:101DA0003800BD6708997C3041720E990172039822
:101DB000002835D06B46988B2080707A032820D17C
:101DC00030001CF04BF90100300023F07DFA410790
:101DD0002078490FC008C000084341072070490F10
:101DE000300023F09DFB0101E06D028B1207120F02
:101DF0000A430283207800E033E09F2108402070EE
:101E00000EE00C4A50880101401C5080687E2A7EFA
:101E1000000210430007000F08432876000A687686
:101E20000021300016F044FCA070089831281BD027
:101E300002AA0DE07C2401C0A8040004A11900003E
:101E4000F4FB00C0021400003A5C00049919000081
:101E50003100380022F038FB012805D10298002813
:101E60000CD0012009B0F0BD0021380011F012FDA6
:101E7000012803D038001BF39DFBF2E70020F1E7B7
:101E80000200894810B5006804210023FFF7B3F968
:101E9000002804D10220FFF719FB002010BD01200B
:101EA00010BD70B50400814D28680079A04201D0B2
:101EB00000F073FB286804717D48446170BD10B563
:101EC00022F03DFC002801D1012010BD002010BDF2
:101ED000784970B50125096B490719D5FF2804D148
:101EE000002411F03CFF010001E001000400724BEE
:101EF0001E1F0AE0E000C2181268801900688242C2
:101F000000D00025641C012D08D18C42F2D905E0D7
:101F10006A48816AC06A814200D00025280070BDED
:101F2000FF2010B5FFF7D4FF002801D011F088FD85
:101F300010BD634870B5007800284BD1614800227D
:101F40000068082109F3BDFA002843D1FFF7E8FF34
:101F500000283FD05C4806F370FD04005A48082171
:101F600006F3FAFC05005848102106F3F5FC281882
:101F700084422FD1554806F360FD040053480821E0
:101F800006F3EAFC05005148102106F3E5FC281889
:101F900084421FD14E4806F350FD04004C480821EE
:101FA00006F3DAFC05004A48102106F3D5FC281890
:101FB00084420FD1474806F340FD040045480821FC
:101FC00006F3CAFC05004348102106F3C5FC281897
:101FD000844201D0002070BD012070BD70B5012089
:101FE0000BF04FF900285ED13B4C354D354E08E0E3
:101FF0002078401C20700120FFF768FA0120FFF7CD
:10200000B1F828780028F3D130680022082109F3BC
:1020100058FA0028ECD102E00120FFF7A3F8FFF7FF
:102020007FFF0028F8D0284806F307FD0400264863
:10203000082106F391FC05002348102106F38CFCCF
:1020400028188442E8D1214806F3F7FC04001F4811
:10205000082106F381FC05001C48102106F37CFCD6
:1020600028188442D8D11A4806F3E7FC040018481F
:10207000082106F371FC050015481021398B525BCD
:1020800001000000E01F000000040000E52A7BA022
:1020900006F36CFC28188442C8D1134806F3D7FC19
:1020A00004001148082106F361FC05000E481021C8
:1020B00006F35CFC28188442B8D170BDE803000424
:1020C000F4FB00C040A6008040A3008034A900803B
:1020D00000A0008060040004B0F500C064040004A7
:1020E000A804000488050004380500047C2401C00D
:1020F000FF305D3089080E2210B516F324FE8000F3
:1021000010BD10B504000C235843FF4940180021AE
:102110000A000B000EC0200010F36EF8200010F330
:1021200076F8200010F35DF810BDF7B586B0040016
:102130001600F64A002500920798310004AA03AB66
:1021400004950EF34EF86B46187C001F032859D8EF
:102150003006000E05901BF3E7FE1BF3F6FE0600AB
:10216000607A032806D16B461B7B0599320020005C
:102170001BF08DFF6B46187C31001CF00BF81FF034
:10218000A7FD0700FFF7BAFA6B460290187BA4235D
:10219000DD4958433031401880306B460576DC4AC3
:1021A000187C68390DF3D3FF6B46197C187B11F34B
:1021B0002CFB6B46187CFFF785FB6B46187C059A59
:1021C00031002300FFF743F96B46197B300011F310
:1021D0002AFA6B46187C2200310010F0CFFF02A8CB
:1021E000FFF7B7FA38001FF077FD6B46197B079AA7
:1021F000200012F04BFA6B46187BFFF782FF01209C
:1022000009B0F0BD0020FBE7F7B584B0050016006B
:10221000BE4A009200240598310003AA02AB039441
:102220000DF3DFFFBC4FBB49380025F0D6EA6B4603
:10223000187B001F032847D8F913380025F0CCEA93
:102240003006000E1BF370FE1BF37FFE01006B4691
:10225000187B1BF09FFF1FF03BFD0600FFF74EFAB7
:102260006B460190187AA423A7495843303140188F
:1022700080306B460476A64A187B68390DF367FFF9
:102280006B46197B187A11F3C0FA6B46187BFFF77F
:1022900064FB2800FEF7FBFF6B46187A11F35DFA2A
:1022A0006B46187B290010F029FF01A8FFF751FAAF
:1022B00030001FF011FD6B46197A059A280012F0C4
:1022C000E5F9012007B0F0BD0020FBE7F8B50D00EF
:1022D000060000241FF0FCFC8C4A07002906090EAA
:1022E000603230001BF37AFB0A280DD2874A0021A6
:1022F0000001603211548018C1602900300011F3D0
:10230000CEFB0AF062FF012438001FF0E5FC20003C
:10231000F8BDF0B50500002085B0019008780C00EC
:102320000007400F16D111F35DF80700042811D003
:1023300077480DF33EFF0600401C0BD03806000E18
:102340003106090E020004900F00200011F307F976
:10235000002802D1002005B0F0BD687A022831D1F2
:10236000280022F0C1FE132149014018807B80071C
:1023700006D56320405D8007002801DA0120019026
:102380000199049810F022FF2200049914322800C9
:1023900012F066F9201D1AF3FCEC0006000E1BF388
:1023A000C3FD1BF3D2FD0290687A03280DD1201DD6
:1023B0001AF3EEEC0106049B090E3A0028001BF00C
:1023C00066FE08E0E8680006D6E7022803D1029915
:1023D00030001BF0E9FE02201BF3B7FD01003000C6
:1023E0001BF0D8FE4D484E4A416A029840003030FA
:1023F000085A904200D1886A0104090C380010F094
:102400008CFF380011F3C2FA300011F3B1FA3E4AE2
:102410000120B100383A50503C4A0092049A3B00E7
:10242000210028000DF3C4FD3800FFF730FA1FF03B
:102430004FFC0600FFF762F90390201D1AF3A8EC89
:1024400002060298120E2B003900FFF700F8201D3B
:102450001AF39EEC02060299120E2B00380010F0BF
:1024600099FE03A8FFF775F930001FF035FC012035
:1024700071E7F3B581B006001FF02AFC234F00245A
:10248000009018206043395C00290BD0C96A8C1F6A
:1024900001000000DC23000000040000CDBBFE1D95
:1024A000C51968781BF34AFD1BF359FDB04203D1EF
:1024B000E878029910F03BFF641C2406240E042CDB
:1024C000E9D300981FF012FCFEBDF8B50025144FAB
:1024D00018206843395C002933D0C419201D22F02C
:1024E0008DFE06002DD06178002230000BF0D1F86F
:1024F0006B46198800010907090F014300911878FC
:10250000000900011870A078009910F3FEFF6B46D7
:10251000188800096081002020730DE0D48102003A
:102520009C800200507D02006666FFFFBBBBBBBB08
:10253000F0580004FFFF000060732900300001F034
:10254000E8F96D1C2D062D0E042DC1D3F8BD70B514
:1025500005000C000FF365FE0C2169434E4B5A58E1
:1025600012185A50226070BD70B505000C000FF3B0
:102570004DFE0C226A43484951188A6812188A6035
:10258000226070BD70B505000C000FF334FE0C2204
:102590006A43414951184A6812184A60226070BD66
:1025A00010B504001FF09EFB3C4A01211368A140B6
:1025B000194311601FF09AFB01208002FEF79AFF79
:1025C00010BD36490F2010B5086001208002FEF7CB
:1025D00091FF10BD70B51FF085FB2F4D00212F4ED0
:1025E0000C0030353268D30704D0A4234B435B1969
:1025F00080331C765208491C04293260F2D31FF044
:1026000075FB70BDA42324495843303140187047EE
:10261000F7B505000026204F34003037A420604372
:10262000C0198030017E01291ED16978027D914256
:102630001AD12978827D914216D1297B427D91421F
:1026400012D1C17D002902D1697BC90608D5016973
:102650000198FF314A3106221FF068F8002803D1A3
:1026600002980126047002E0641C042CD6D33000CA
:10267000FEBD30B51C00A4235843074B4D783033C2
:10268000C018030080331D750D789D751A61097B94
:102690005975DC7530BD0000D48102004C7D02000C
:1026A000F8B503242600032801D1002439E00328CB
:1026B00037DA0400461C34E0FC4861010A18822025
:1026C0006043FB4B95680021C0188173C173417C46
:1026D000F84B4906490E417401211888A1408843EE
:1026E0001880202110001AF3B8EA002D18D00B2012
:1026F00080012F1878690021FF30C94321304181C2
:10270000280000F0DFFA002804D0E868012109045D
:102710008843E8607869FF3021304189E54881606D
:10272000641CB442C8DBF8BDF0B50C000700012002
:10273000002985B003D10320FFF7B2FF75E0E178EF
:10274000A278090211430A00FF3A193A6ED1617A60
:102750004D066D0E032D69DAD44A6901891803917B
:102760008968002901D0B94260D1E07AA17A0002DB
:1027700008430B21890179180028029103D1280010
:10278000FFF78EFF4AE082216943C9480E1860793D
:10279000217902020A433000921D210008301AF309
:1027A000C0E9F17BB27B080210437D23DB00584374
:1027B0000090C11701910822300069461AF3B0E970
:1027C000039820211AF348EA0398BA498760012048
:1027D0000A88A84010430880607AC0091ED0F07BA8
:1027E000B17B0002084319D0F868012109040843AD
:1027F000F860F07BB27B0102029811434469E01D4E
:10280000F930806B1AF3DCEEFF3421346189AA4A77
:102810000004000C914200D00818608102984069C1
:10282000FF3021304189A3488160002005B0F0BD10
:10283000F8B506009D4F0024822161439C4808188A
:10284000C17B827B0802104307D06001C519A868CC
:10285000B04202D10FF330FA03C5641C032CEBDB4A
:10286000F8BD032010B5FFF71BFF90480021603032
:102870000A000B000EC00EC008008E494860886038
:10288000C86010BDF0B5002089B0040007900FF3B8
:1028900013FA0E00069082216143854892918401CB
:1028A00001000000D8270000000400009E612D7187
:1028B00008180890C27B817B1002084345D08048ED
:1028C00061010D182A6806986B683100801A9941D9
:1028D00006D32A6806986B683100801A994106E091
:1028E00028686968069AC043C943801871417D22EF
:1028F0000023D20019F3FCEE049006980F0041C5A6
:102900000822089902A81AF316E902A807C83B0092
:10291000121A8B4110D20899082202A81AF30AE968
:1029200002A807C8801AB9410191009008980822AE
:1029300069461AF300E908E00898082264A11AF32E
:10294000FAE80798012108430790641C032CACD3D4
:10295000079809B0F0BDF3B581B08E1C0A2700249A
:1029600057486101081881680198814217D1822176
:10297000614354480D18687B297B02020A432900F1
:10298000121D0A3130001AF3D6E8687B297B000259
:102990000843361D86193F1DC01907043F0C641CEF
:1029A000032CDDDB3800FEBDF8B54201822344492B
:1029B000584354184349A6684018407CC009404217
:1029C000304253D00B208001351868693F4AFF30F0
:1029D00021308189914249D02269A169914232D83E
:1029E000E1686069884237D90FF370F96A69364F38
:1029F000FF32213293895B1C1B041B0C93816A6993
:102A00007B6029D0D31DF9339F6B334BFF325F437B
:102A100031320CCA801A994100233A1A8B411BD2D9
:102A200029490122C8680223401CC8606869002146
:102A3000FF30C943213081813100FF314A313000FC
:102A400016F078FE08E0002181810FF33FF96A69F2
:102A5000FF32521C516310636069E060A06920611D
:102A60006869FF302130818917484160F8BDF7B5AA
:102A700082B00D0014000298410111480F18BE6881
:102A8000002D7ED0002C7CD0002E7AD00298FFF74B
:102A90008BFFFF21114800222D311AF3D3FD0028AE
:102AA000206008D1FF210E4800222D311AF3CAFD03
:102AB0000028206065D0687AC009786912D113E0D7
:102AC000503801C0C83601C0D4F500C0FFFF000077
:102AD000000000000000000040420F00A8040004B5
:102AE00038050004401C78610299944A89005050CE
:102AF0002068466121680220087321681C20088133
:102B000020685A217C3041722168AC2008812468F9
:102B10001221AC3420001AF3D4E8142027180190B5
:102B2000B07A2070F07A21006070083100201AF32A
:102B300054E90020A073A071E07101982071000A8F
:102B40006071E87AA97A00020843010AA0700E2891
:102B5000E1700CD2E87AA97A000208430E21091A22
:102B6000C0191AF3AEE80E20A0700020E07030000B
:102B700022F0BCFB002800D0287A2073607B40083C
:102B800000E02BE04000F12108406073E87AA97A68
:102B900002020A4329000C310C00380019F3CAEF75
:102BA000200017F061FE5924E40000280BD0687A59
:102BB000C00902D00622311902E0062231007E311E
:102BC000380019F3B8EF2800123017F04DFE002836
:102BD00004D006223119B81D19F3ACEF30E6FEB56A
:102BE0000027574E3C000297822060438519E87BFE
:102BF000A97B0002084322D008222900684619F365
:102C00009AEF019900987940084318D182206043D7
:102C100002AA811908312000FFF729FFE87BA97B70
:102C200000027D230843DB0058430090C117019147
:102C300008222800694619F37EEF0298FEBD641C45
:102C4000032CD1D30020FEBD3E48008870473D4A8A
:102C5000010012880020002A05D0002903D0C9688D
:102C6000C90400D50120704770B500281BD0334C33
:102C70000C34002918D121680022491C21600B2145
:102C8000890144186069FF30213082810FF31EF8FA
:102C90006269FF32521C5163106360692949FF3039
:102CA00021308089486070BD244D00210442651D9B
:102CB00001000000D42B0000000400006A0E58C57B
:102CC000603D4B015B199E6886420BD19E69761C64
:102CD000002A9E6103D063685B1C636002E0A36806
:102CE0005B1CA360491C0329EBDB70BDF8B5060033
:102CF0000B20800130184569012700241448610128
:102D0000603808188068B0421CD1822161431148A4
:102D10000818417CC90915D0C17B807B00270902B6
:102D200001430FD0E81DF930806B1AF35EEC01040B
:102D30002800FF3021304289084B090C9A4200D00C
:102D400051184181641C032CD8DB3800F8BD000009
:102D5000B03801C0C83601C0D4F500C0FFFF000084
:102D600070B50500002422F0DDF90600280009F006
:102D700091FC2B7A1AF304E907050F0505181814BE
:102D80001800697A022902D13400643413E0002962
:102D900011D004680FE00B2080012818046A0AE0B3
:102DA000172040012C1806E01EF0B0FFFF48FDF789
:102DB00021FA24F028ED200070BD70B50500002434
:102DC00009F068FC297A002908D0012908D00329D4
:102DD0000CD1697A032901D001290FD144680DE093
:102DE0000B2080012818046A183407E01EF08EFFBB
:102DF000EE48401CFDF7FEF924F004ED200070BD04
:102E000070B50500002409F045FC297A002908D096
:102E1000012908D003290CD1697A032901D001299D
:102E20000FD1C4680DE00B2080012818046A2534F6
:102E300007E01EF06BFFDD48801CFDF7DBF924F096
:102E4000E2EC200070BD017A012905D10B21890136
:102E50004018006A353070476130704770B5040023
:102E6000FFF77EFF0500200022F05CF9617A02295D
:102E700004D1132149014018807B0CE003F00EF9C6
:102E80000B21890161180128486902D160308078DE
:102E900001E060300078C006C10F08D02000290092
:102EA00061300DF3C9FD002801D0012070BD002064
:102EB00070BD70B504000D0022F034F9617A02296A
:102EC00004D1132149014018807B12E0207A0628A2
:102ED00002D16320005D0CE003F0E0F80B218901D2
:102EE00061180128486902D16030807801E06030C3
:102EF000007881064006C30FCA0F20002900613008
:102F00000DF3A8FD70BD10B50400407A022802D070
:102F1000207A062805D12000FFF722FFC07840075D
:102F20000DE003F0BBF80B21890161180128486905
:102F300002D16030807801E0603000788007C00FF7
:102F400010BD603040798007800F7047C068400630
:102F5000C00F70470100C96800204A0602D5090663
:102F600000D501207047F7B584B0002406000F009B
:102F7000FFF7F6FE05003000FFF71FFF039030005B
:102F8000FFF73EFF02003000FFF75DFF0300F0682F
:102F90004006C00F0AD0039800216E4607C61A00EB
:102FA000069938002B000DF36CFD0400200007B0DB
:102FB000F0BD08B50168836A01290AD100220260C8
:102FC00001007B4A180000927A4A7B4B1C310DF3BA
:102FD000CFFD08BDF8B50D00FF21040017002D310D
:102FE00003F047F90028286011D001892200461813
:102FF0007E325921C90000923A0061180D2303F076
:103000008DF90320203630702968AC200881F8BD86
:10301000F7B5FF2105000600FF364A362D3182B094
:1030200003F027F904001BD020892A007E325921A1
:103030002718C90000922000320069180D2303F000
:103040006DF9042020373870AC202081049A039950
:1030500020000EF3E7F8200003F0B6F905B0F0BD4C
:103060000020C043FAE7FFB587B01C00060000202F
:10307000069052484068002802D0504817F3DEFB03
:103080004E4F08981837002830D12079E178000297
:1030900008432BD1307A012804D0717A022901D05B
:1030A000062807D1607900228006010F30000AF05F
:1030B00004FB05E060798006010F30002ABA17DDB5
:1030C00001000000D02F00000004000039D48BA9BB
:1030D0000AF064FF050060796B461875A079587591
:1030E000384A5920C00003923749099A3018029192
:1030F000019000927A89059B290030000DF3B4FEFF
:10310000300024F09AEB05006079C3210840397A39
:1031100023008906090F890008436071069A00920E
:10312000099A089928000DF370FE280024F088EB16
:103130000BB0F0BD7CB504001EF0F2FD2549050082
:1031400048686B46401C4860E0799870207AD870D7
:10315000A07A617A000208439880E068631C01222B
:10316000694624F072EB28001EF0DEFD7CBD7FB5C1
:1031700004001EF0D5FD0500164A210001A80EF33B
:1031800045F8002807D0012200922069621C022124
:1031900001ABFFF772FF28001EF0C6FD7FBDF8B53A
:1031A0000D000124417A022922D10B218901411805
:1031B000496801291CD121F0E6FF060028000BE038
:1031C00003000100C72E00009C800200FC8002006A
:1031D000106402C0882401C01AF3CEFE7D21895DEF
:1031E00000910100009804F0FDF9002800D00024AF
:1031F0002000F8BDFEB50400401C22F01DF80500BB
:10320000FF4F57D0E8684006C00F53D0207A8006A1
:10321000010F2800FFF7C3FF00284BD0207A80065B
:10322000010F0191687A032801D001280BD12800F1
:1032300022F07CF8217A0600C32001403007800E7E
:103240000143217200E00E00EE49320020000DF330
:10325000ADFE411C46D0621C280002A9FFF7C4FE47
:103260000298002826D0287A012804D0697A0229F9
:1032700001D0062805D10022310028000AF027FAE3
:1032800003E0310028000AF089FE010002982200C4
:103290000DF364FE207AC321084001990907890EC5
:1032A00008432072D848E1790170029803F096F83B
:1032B000401C01D1380013E0D4480E22210019F33C
:1032C0004EECD2480561183817F352FACF48642201
:1032D0000092CF4ACD4B0121183817F388FA01200C
:1032E000411C16D1617B227B09021143E181E17A05
:1032F000A27A090211432173090A6173217AA1722A
:10330000617AE17201210022217262722170BE494C
:103310000A70FEBD7CB50400401C21F08DFFB84E44
:10332000050012D0E8684006C00F0ED0621C2800CD
:1033300001A9FFF759FE0198002806D021000DF3DE
:103340004FFE019803F04AF80600701C02D10120DC
:1033500020700CE0607A217A0002084307D1AD4A60
:103360000092AD4A00212B0020000DF384FF3000B5
:103370007CBDFEB50400401C21F05EFFA04E0500A0
:1033800003D0E8684006C00F01D13000FEBD687A66
:10339000032801D001280AD1207A0109280021F050
:1033A000C5FF217A0907090F000101432172E07965
:1033B0006B461872207A587202980190A07A617A4E
:1033C00007020F43621C28006946FFF70DFE0098B4
:1033D000002801D1300006E001993A000DF359FCB4
:1033E000009802F0FBFF411C02D101212170FEBDBB
:1033F0000028FCD185480B2221002C3019F3AEEBBC
:1034000082482C30C560183817F3B2F97F4864221F
:10341000143003000092814A0121183317F3E7F9B1
:103420000120FEBD70B50B004A780D7811020B2209
:10343000920180184069002429438030012902D17B
:103440000422991C02E001000422981C19F386EB67
:10345000200070BD10B5FFF7E5FD002800D1012068
:1034600010BDF7B582B005000E004F6B8C6BFFF7F7
:1034700081FCE9684906C90F0BD0297A012909D1D5
:10348000674A2B0000926748049A7E3331000DF39F
:10349000EDFDEDE5697A032901D00129F9D1002C70
:1034A000F7D0002FF5D001794A07D30F22795207C0
:1034B000D20F934204D0FB231940920011430171B3
:1034C0000179CA06D30F2279D206D20F62F4982965
:1034D00001000000CC330000000400008611AE1A89
:1034E000934204D0EF231940120111430171C178B6
:1034F0000A07D30FE2781207D20F934204D0F723C2
:103500001940D2001143C170017922798B079207CB
:103510009B0F920F934203D08908890011430171D8
:103520002800FFF7AFFC02000021280015F037FA51
:10353000A8E510B50400C8798A7903020B20800140
:103540002018406913438A786030012B02D0022B87
:103550001BD107E00270CA7842700A79027149797A
:10356000417106E08270CA78C2700A798271497925
:10357000C171200014F047FE2000FFF783FC020019
:103580000021200015F00BFA10BD0270CA784270BD
:103590000A7902714A7942718A78E3E7CA798B79AC
:1035A00012021A436030022A08D182788A70C278E7
:1035B000CA7082790A71C0794871704702788A703E
:1035C0004278CA7002790A714079F5E7F8B50500CA
:1035D0000E000024154B310020006A460CF378FDE4
:1035E000012808D121003000FEF7A2FE00222100B0
:1035F00030000DF310FB084A310020000CF397FD5A
:1036000001281ED1220031002800FEF72FFE0122E2
:10361000210013E0FFFFFFFF9C800200882401C00F
:10362000286402C06F300000C72E0000FC8002003A
:1036300035300000404B4C003E5C000430000DF380
:10364000EAFA641C2406240E082CC3D3F8BD38B54E
:103650000400FFF799FB0500E068C02188430022C1
:103660001100E060FF48130000920DF346FD207A40
:1036700001280AD100220B20800120180092006A44
:103680001100353013000DF338FDF74A2000009289
:10369000F64A2900613000230DF32FFD2100FF3190
:1036A0004A312000FFF792FF00221100200015F0A0
:1036B00076F938BD02004032002110B511849184A2
:1036C000030051846033D18419782022114319708A
:1036D000997868301143422211439970182119F3E7
:1036E000E4EA10BDF8B50E00018945690918CC6DF2
:1036F0002700203738000DF360FD002813D0D94A89
:10370000A31D483200921C002A00390030000DF33E
:1037100017FD0006000E05D02300320039002800F6
:1037200024F09CE8F8BD38000DF351FD0028F9D0D5
:10373000287A0228F6D032003900280024F092E8D6
:10374000F8BDFFB583B01400039821F0FFFC8F2172
:1037500089004018029000200190607821780002D2
:103760000843052864D9401F04060498240E401D10
:1037700000900398C17A007A08F0E6FB21F00DFD75
:10378000092686570700007A083780063500800F23
:103790000B2101280BD1F21E012A00DDF01E0506C7
:1037A00008002D16F11D0B290FDAF01D0DE003287E
:1037B00039D10120F21F012A00DDF01F05060800A3
:1037C0002D16F11C0B2900DAF01C060636162AE02D
:1037D0000098220049210CF0F1FB010028D04A7822
:1037E000901C0006000E84460020521E96460EE0F5
:1037F0000B18DA78AA4207DBB24205DC7B789342E9
:1038000002D00120019004E0401C0006000E864515
:10381000EED80098081A221A6046101A0406240EE0
:10382000604608180090002C02D001980028CFD0E4
:1038300002982030807C80070BD5049800794007DF
:10384000800F02D10198012803D10398002124F0B0
:103850000EE804980921007908420BD048206B46F5
:103860001870012058700020987003980322694650
:10387000FFF7E2FB012007B0F0BDFEB50500160022
:1038800048780C0001270C3600280CD001282FD0D6
:10389000022842D1E868C00440D522003100280047
:1038A0000DF377FA3AE0E8684006C00F0BD020F03D
:1038B0003FFD002816D00B20800128184069803079
:1038C0000078C0070ED0320028006946FFF796FB4B
:1038D0000098002822D021000DF3FAF986E54F095F
:1038E00001000000C837000000040000D5CB7D7641
:1038F000009802F087FD1BE02A00210030000DF344
:103900000EFA15E01EF020FA01905D48A178401EE5
:103910000278914207D10021017023003200280073
:103920000091FFF7BEFB01981EF012FA00E000279D
:103930003800FEBDF8B501250700524E00242D03C6
:10394000FF374A37182060438119305C0A000A3279
:1039500000280BD01088A84208D0091D0622380084
:103960001DF016FF002801D10120F8BD641C042CB5
:10397000E8D30020F8BDFEB504000D00407A02280F
:103980000CD1200003F0DBFE002807D0FF205130CF
:10399000015B0122200023F078EFFEBD182169436E
:1039A000384802AA0D1868892F000D370190781E3B
:1039B00000900821200002F099FC0600EDD002984A
:1039C0000421C06D017000214170203004210400E9
:1039D00019F39EE9207804210843207060780107DC
:1039E0006878090F000101436170E078A178000256
:1039F000084301990007000F09010843A070000A5D
:103A0000E070214930000FF08BFF0028C5D03878D6
:103A1000401C3870009801210170FEBDF8B505000A
:103A20001EF092F9174E07000024182060438119F8
:103A30000A00305C0C32931E002815D01078002844
:103A400012D118880122120390420DD02800FF30B5
:103A5000091D06224A301DF09BFE002804D12106D4
:103A6000090E2800FFF787FF641C042CDDD3380003
:103A70001EF06EF9F8BD0000F46302C0446102C09C
:103A8000892401C09C8002000210000010B5FB4C8C
:103A9000606B002805D123F0FCEE002801D0012046
:103AA0006063606B10BD10B523F0F6EEF3490020A3
:103AB000486310BD30B50020F14D0D210400030016
:103AC0008901691814E0E868401CE8601000526B36
:103AD0008A62002A00D1CB620279052A0BD12A69B9
:103AE000521C2A618362036003710020002C02D102
:103AF0008A6A002AE7D130BD10B50A68E04B002A77
:103B000003D11868401C186010BD8A6A824203D035
:103B10005868401C586010BDD8480024026A002A2A
:103B20000FD08A4210D09A68521C9A6004220A71FF
:103B3000C26A002A01D0516300E08162C1624C6315
:103B400010BD012201620A71006A07228462CD4819
:103B5000402100681EF0A4FF10BD10B50A68002ABD
:103B600010D0C64A936B83420CD1106A002809D04A
:103B7000884207D100209063C24807220068802154
:103B80001EF08EFF10BDF0B5050085B000F0CCFB37
:103B9000002000F0D7FB04007ED0286B2063B748DC
:103BA0000490416A491C4162216000F0C5FB0EF39C
:103BB000B5F803910290206800272E0039002036C6
:103BC000002803D1049A0120506220600023237151
:103BD000307A6071A079717A800889078000890F36
:103BE0000843F321A0710840B17A8907090F0843FF
:103BF000CF21A0710840F17A8907890E0843A0718E
:103C000069692869594008430DD02A6902986B698F
:103C10000399121A8B410AD3029A2869039B696996
:103C2000801A994102E0A869002800D00700029A92
:103C3000039B0021B8185941E160A060E869206148
:103C4000286A6061686AA0612868E061686820622B
:103C5000A868606220002030417B327B49089207CF
:103C60004900D20F1143FD2241731140327B5207AC
:103C7000D20F52001143FB2241731140327BD20616
:103C8000D20F92001143F72241731140327B92060A
:103C9000D20FD200114300E01AE041730221817378
:103CA000317B090701D506218173327B0121D207BF
:103CB00000D102210173827B2300009272482833D5
:103CC0003A00210007F3F2FF002806D1206001E04E
:103CD00000F032FB002005B0F0BD2068FBE7F8B52E
:103CE00005250E0000F02EFB04006448AF08CD9EB1
:103CF00001000000C43B00000004000021A408C231
:103D0000016AA14216D1A06A002803D008F33BF84B
:103D10000020A062002E66610CD0002223000092D9
:103D20005E4828333200210007F3CAFF032500282C
:103D300000D104252800F8BD70B5052500F00CFB66
:103D400004005348016AA14207D1A06A002804D0A8
:103D500008F319F800200325A062280070BDF8B50B
:103D60000F00052600F0F8FA494C0500216A81424F
:103D700015D1A06B002803D008F305F80020A0633C
:103D8000002F0CD0424B00220092454838333A00B5
:103D9000290007F395FF0326002800D104263000F0
:103DA000F8BD70B5052500F0D7FA394C216A81427B
:103DB00007D1A06B002803D007F3E5FF0020A06324
:103DC0000325280070BD38B50120FDF7CFFB304C2E
:103DD0002C20236AC15C5A6A1868DB699847206AFC
:103DE000006B02F0CEF800F0A9FA1DF0B7FF216ACF
:103DF00005000020086000F0A9FAFFF765FE2062C8
:103E000028001DF0AFFF216A002909D02E20425C56
:103E10000B000092234A2148283307F351FF01E0A9
:103E2000FFF74BFE032038BDF8B50600072021F050
:103E3000B1F9174F05004BE0386A006BA84204D077
:103E4000280023F038ED00283DD13400162E10D183
:103E5000280023F034ED002830D0687A02282DD1D4
:103E6000386A2030407B400701D52A2426E02824E8
:103E700024E0192E03D01A2E01D0182E1ED10B20AB
:103E8000800128184069817B00290DD02C2415E081
:103E9000283C01C0E83801C00CFC00C0D13900004A
:103EA000333A0000A0860100C07B002801D02924FD
:103EB00004E0386A006BA84200D0182422000021D8
:103EC000280002F0FDFA0721280007F0FBFF05009B
:103ED000002DB1D1F8BDF8B505250F0000F03CFA72
:103EE000040064D0A06A0026002802D007F34BFF2C
:103EF000A662FB4D286AA04257D100F01FFA207934
:103F0000022801D003281ED1267100F01FFA286A6A
:103F10002030072F077308D0082F0BD11A20FFF786
:103F200083FF272006F037FD40E01920FFF77CFFD4
:103F30002620F7E7286A006B23F0C4EC1820FFF76F
:103F400073FF2520EEE7012801D004282AD100F0D4
:103F5000FDF9E369626A20680B219847286A006BC3
:103F600002F00FF800F0EAF91DF0F8FE26600700F5
:103F7000267100F0EBF9FFF7A7FD286238001DF06D
:103F8000F1FE296A002909D02E20425C0B00009224
:103F9000D44AD548283307F393FE01E0FFF78DFD9F
:103FA0000320F8BD00F0D2F900E0266003252800C8
:103FB000F8BD70B5040004251DF0D0FE0600C84809
:103FC000006AA04219D0217920680325042906D16E
:103FD00005212171E369626A0B2198470DE0A06A0F
:103FE00007F3D1FE012808D1E369626A20680B213A
:103FF00098470021A1622160217130001DF0B2FEBE
:10400000280070BD70B50500042400F097F9280061
:1040100000F0A2F9002802D0FFF7CBFF040000F067
:1040200095F9200070BDF8B505000E0000F086F986
:10403000AE4F002438206043C019816900290ED09A
:10404000002D03D04521095C890705D4002E06D038
:104050004521095CC90702D01830FFF7AAFF641C8C
:104060000F2CE7D300F072F9F8BD01210020DAE748
:1040700010B523F02CEC002801D1012010BD002048
:1040800010BD38B523F026EC1620FFF7CDFE152025
:10409000FFF7CAFE924C206A4179002906D0817947
:1040A0000091417900980022FFF7E2FF216A032086
:1040B0000871206A8069002808D00DF339FE256A4E
:1040C000AA68EB68801A9941A9690860216ACB69DE
:1040D0004A6A086803219847216A4869002809D07C
:1040E0008A6A002A06D100920B0002007E4828331B
:1040F00007F3E6FD032038BDF8B50700CEC90F7001
:1041000001000000C03F000000040000727EDBAE32
:104110007C4E784D306800281ED12C6A23F0E8EBE5
:104120002C20015DE369626A20689847022824D048
:10413000002F05D01620FFF781FE0120306005E03A
:104140001720FFF77BFE242006F02FFC296A0220AF
:1041500008713068002817D0286A2030407B40075B
:104160000DD5042009F0E7F8002808D107F0FAFE81
:10417000040007F004FF844201D00220F8BD0020B3
:104180003060232006F011FC0320F8BDF7B586B09F
:1041900004001600002513002F0003AA04A905A897
:1041A0001FF07CFF059B002B14D06069002802D112
:1041B000306801256061039A0799019200912200FD
:1041C00000211E0004980B00B0470700002D01D00D
:1041D00000206061380009B0F0BD70B586B00600FF
:1041E000002503AA04A905A802AB1FF057FF059CF0
:1041F000002C09D0039A002101920A00009131009D
:1042000004980023A0470500280006B070BD394877
:104210002030017F491C01773649096A00290AD0FC
:104220000A79032A07D1427F521C4277CB694A6A36
:1042300008680921184770472E4810B5006A002801
:104240000BD02030017B032907D1012101732E48B7
:104250000722006840211EF037FC10BD70B5042015
:10426000244C236A002B24D02C21C95C1868032518
:10427000012909D1FFF71EFC002810D001200AE017
:10428000206A2030057313E0022913D1FFF712FCD6
:10429000002804D00020FFF739FF0328F0D00120C8
:1042A000FCF7BAFF18480722006840211EF00CFCFA
:1042B000032070BD03290ED1186B0B218901401812
:1042C0004069022101F066FE206A0421203001735A
:1042D000FFF7E1FEECE7062901D1062006E00729F9
:1042E00014D100210120FFF7A8FE0720FFF775FD7C
:1042F000DEE70000283C01C0A0860100D1390000A3
:10430000E83801C0E4F500C00CFC00C0082901D168
:104310000820EBE75A6ADB699847C9E71D49042082
:10432000096A002907D00A79032A04D1CB694A6AAD
:1043300008680521184770471648006A002800D011
:10434000012070471348006A002800D00120704700
:104350001048002110B5006BC9431EF0B9FB10BD19
:104360000C4810B5006B1EF0BAFB10BD30B5040050
:10437000094D0020010038224A4352199369A34293
:1043800001D110001830491C002801D10F29F2D3A7
:1043900030BD0000283C01C0E83801C010B5002441
:1043A00020290FD065290BD1084819F319FA0028E4
:1043B00005D10648143019F313FA002800D001245F
:1043C000200010BD02488260FAE700003046000479
:1043D000E8F500C0012210B5FF48072142700170C6
:1043E000FE480168930519430160FD4801681143C7
:1043F0000160FC480FF330FE012010BD002010B515
:104400000FF304FEF449491F487010BD012010B598
:104410000FF3FCFDF049491F887010BD0020704764
:104420004042022900D90221EB4A8900233289182F
:10443000ED4A1268012A01D18A5601E000228A560B
:10444000101802228A56824203DB03228A568242D5
:1044500000DD1000000600167047E349DE4A0968D7
:104460004042921C012901D1515601E000215156D0
:10447000081802215156814203DB03215156814223
:1044800000DD0800000600167047D3490278891C39
:104490000A7002794A70827821310A7082794A70F2
:1044A00042780A7142794A71C2780A72C0794872B8
:1044B0007047C9490220C043891C087048702131E7
:1044C0000870487008714871087248727047002877
:1044D00001DD002004E06421C943884200DA0800BD
:1044E0004042000600167047002070477CB56B46BE
:1044F0000024B94E1970F61D5870009801A910F0EB
:10450000EBFC00280BD0A5006B4659795D4BFF8969
:1045100001000000BC43000000040000708703B8E5
:10452000705B0FF39AFDA8196B46197940880FF359
:1045300094FD641C012CEADB7CBD7CB56B46002439
:10454000AA4E19700B365870009801A910F0B9FCEA
:1045500000280BD0A5006B465979705B0FF37DFDE9
:10456000A8196B46197940880FF377FD641C012C5C
:10457000EADB7CBD7CB56B4600249C4E19700F367F
:104580005870009801A910F0C5FC00280BD0A500B8
:104590006B465979705B0FF360FDA8196B4619796A
:1045A00040880FF35AFD641C012CEADB7CBD3EB54C
:1045B0006B460C0019705870009801A910F0D4FCDB
:1045C000002803D001A8FFF76AFF3EBD2000FFF7D7
:1045D0007AFF3EBD002800B511D1022A05D1092974
:1045E00001D8481C00BD082000BD032A05D10529BB
:1045F00001D3C81E00BD022000BD481E00BD022A16
:1046000001D0032A40D1702938D011DC8807800FEF
:1046100038D18B10093B18F3F0EC132727292935E3
:10462000352B2B35353535353535352F2F31350093
:1046300088290DD00EDC7C2922D005DC742901D01C
:1046400078291FD1762000BD802919D0842919D15D
:10465000862000BD95290DD099290BD09D2901D028
:10466000A1290FD19F2000BD262000BD2E2000BD16
:104670003E2000BD972000BD662000BD6E2000BD1D
:104680007E2000BD362000BD080000BD10B504002E
:10469000FFF7A0FF002C00D1401C0006000E10BD4B
:1046A000002804D0012802D0554A904205D14F4A33
:1046B000921E10700020517070470120704710B595
:1046C0004A4CA41E2078FF281ED0012804D10421C2
:1046D00070200FF3E1FC03E0042170200FF3E9FCEC
:1046E0005F200FF39DFC617840180106090E5F20E2
:1046F0000FF3B3FC60200FF393FC617840180106C0
:10470000090E60200FF3A9FC10BDF7B582B00400BC
:104710000D003C4E01200490B06A3B490840B06255
:10472000706A3A49084370620FF032FE01908021AE
:1047300002200FF3B1FC01200AF052FE802102207A
:104740000FF3B7FC01200AF04BFE290020000FF008
:10475000E5FC29480FF38AFC2F063F0E04993A0026
:1047600020000FF057FC002C0CD10E2D01D1284851
:1047700006E010F042F9012801D1264800E0264861
:104780000FF374FCFFF79BFF01980FF008FE049AEB
:1047900021002800FFF7EEFE049A21002800FFF711
:1047A000CCFE049A21002800FFF7AAFE049A2100FB
:1047B0002800FFF7FCFE706A1449C9430840706284
:1047C0000AF062FE04992A0020000EF091FC0AF023
:1047D00096FE20000BF042F90AF056FE049A3900CA
:1047E0002000FFF753FF0700200017E0FDF500C091
:1047F00080210080002D00809C2601C03804000428
:10480000FFFF000000A80080FCFDFFFFC00000804B
:10481000B42701C0AC2701C0B02701C00AF0A9FC31
:104820000600010020000FF02FFC310020000EF0E8
:1048300083FC022107200CF3D5FF0FF03BFC002E78
:1048400004D0102107200CF3CDFF03E01021072036
:104850000CF3BDFF390020000EF076FC04992A000D
:1048600020000EF0BDFB0EF097FB0FF035FC854DE0
:10487000002E1FD084480068002817DB07200CF3A7
:104880006DFF8009012803D1E869401CE8610AE056
:10489000022803D1286A401C286204E0032802D1C0
:1048A000686A401C6862A869401CA8610221072050
:1048B0000CF38DFF0AF023FE744E002C01D17448D6
:1048C00000E0744830612878A0420BD020002C70A2
:1048D0000AF0F4FC20000FF0F1F820000FF0FBF8D4
:1048E0006B4618703069082108433061012005B01B
:1048F000F0BD6449FF2008707047F8B580011700CB
:10490000604B050C0022DB1D9856002800DC42425B
:104910001006000E1F261F2800D206003AA642BE2F
:1049200001000000B847000000040000235DD0D45F
:10493000202905D0402905D0802905D0002404E095
:10494000102402E0202400E030242906090ECD20A6
:104950000FF38DFB290ACE200FF389FBD2200FF332
:1049600069FB410949013143002F02D14020014335
:1049700001E0BF200140D2200FF379FB210080200D
:104980000143CC200FF373FBF8BDF3B5D2208FB0F9
:104990000FF350FB4021084203D044480926019000
:1049A00003E0424809300B2601900F98310018F3BC
:1049B000D8E9002503950295CC200FF33BFB400678
:1049C000FAD5002428E0CC200FF334FB00090001C5
:1049D0004006400E20430106090ECC200FF347FB92
:1049E000D1200FF327FB0004A70004A9C851D02051
:1049F0000FF320FB04A9C9590002084304A9C851B8
:104A0000CF200FF317FB04A9C959084304A9C851C3
:104A100003994018641C0390B442D4DB0398002827
:104A20001AD0002404AF14E0A00038580102081A7C
:104A3000039918F320EE0F990006000E085541194E
:104A40000D0601992D0E0957414302980818641C60
:104A50000290B442E8DB09E00F99701EFF220A546D
:104A60000199150008560302181A02900F980F9A20
:104A70000178FF20401B09181170019A002151563E
:104A80004143029808181099002902D01099001289
:104A90000880300011B0F0BDF8F500C0002B008098
:104AA000C0A2008008A8000008680000E47A0200A4
:104AB00070B5FF4D6969FF484165FF490968816527
:104AC000FE4800248461FCF7D6FA1020FCF7B9FAFE
:104AD000680DFCF7B6FA2C6070BD10B5F54C0200FD
:104AE000616B206B18F38EEA7D22D20018F38AEAFC
:104AF000E36AA26A17F34CEE10BDF8B57D220700F9
:104B0000EC4CD200616B206B18F37CEA05000E00C0
:104B1000E16AA06A3A0018F376EA33002A0017F334
:104B200038EEF8BD10B5E34C0200616B206B18F352
:104B30006AEA7D22D20418F366EAE36AA26A17F3EE
:104B400028EE10BD10B5040009F0E3FA21001CF0B6
:104B50000EEFDB4A002317F31CEE10BD70B5040006
:104B6000D44D01206872D7480168820C114301605E
:104B70000AF091FDD4494000085A64235843A861C3
:104B80006043FCF73BFA70BD10B50124FCF72BFA2B
:104B9000200010BDC7480079704770B5FCF738FA9F
:104BA0000600FCF744FAC34C002526636563A1693F
:104BB000E5624143C348A1620168820C91430160F0
:104BC0002079002804D10120FFF7ACFFFCF724FA7C
:104BD000657270BD70B5B74C2069FFF77EFF6189C3
:104BE00018F348EDE0610500B848A16918F342EDFB
:104BF0000100A84201D8E06901E00800E1617D21DF
:104C0000C90018F338ED206270BD0A2010B5FFF717
:104C1000A5FFFFF7B9FF040010D0FFF7BEFFFFF7B5
:104C2000D9FFA448016A08000A2907D9FFF796FFAF
:104C3000FCF7D9F9FFF7B1FFFFF7CCFF200010BD5B
:104C400070B504009B4D012068729E480168820C7B
:104C5000114301600AF01FFD9B494000085A64217E
:104C60004143002CA96102D00800604305E0E869D7
:104C700048437D21C90018F3FEECFCF7BFF970BD75
:104C80008C490A6A824206D84A7A002A03D14979B5
:104C9000002900D1D4E77047F3B583B000278549D8
:104CA0000D006B6B2A6B390018F3A0EA02900C0020
:104CB000E96AA86A049A18F3A6E905000E0006221C
:104CC00018F3A0E93B00052217F362ED0191AA0F4A
:104CD000B10011430090A8003B00052217F358EDE6
:104CE000029A2300121A8B411AD3684607C8801A09
:104CF000A14115D307223100280018F384E9029A54
:104D0000801861416B4C4A07C0081043636B226BEB
:104D1000C90817F33EEDE162A0620498676320635F
:104D200005B0F0BD70B5634C607900284E8BD0148F
:104D300001000000B44B000000040000D732A56061
:104D400011D1FCF75AF9FCF76DF90500FCF779F978
:104D5000614A01001068930C98431060A0694843B1
:104D60002900FFF7A3FF2079002804D10120FFF7D5
:104D7000E3FEFCF75BF90020607270BD70B5FF24A4
:104D8000514D5A342B68C31A1B1BFF3BFF3B1B1FA3
:104D9000002B04DC5349886A401C886203E081428E
:104DA00001D8824201D2002070BD1800FFF7AFFE8B
:104DB00006002000FFF7D0FE04002868FFF7A7FEDA
:104DC0008219230000213000FCF798F92879002887
:104DD00006D12868FFF79BFE0004000CFCF705F9DC
:104DE000012070BDF8B505006846FCF742FA3E4860
:104DF00000990068814201D0FCF720FA3B480099F5
:104E00000068814201D0FCF719FA394C394E2078FC
:104E1000FF280AD105F011FD002806D0002D04D08E
:104E2000306822000D21FCF71BFA0099306881429E
:104E300001D0FCF703FA304800990068814201D0A4
:104E4000FCF7FCF9F8BD284838B50068FCF7FCF918
:104E500026480068FCF7F8F9264D2868FCF7F4F9B5
:104E600025480068FCF7F0F9214C2178FF2905D08E
:104E700028686A46FCF7F4F9FF20207038BD1C480A
:104E800010B560380078C00705D00AF011FB0DF0AE
:104E90004BFF0AF048FB10BDF8B50AF002FE114EB8
:104EA00000257560FFF7CFFF08498031086B0822A5
:104EB000104308630E48114F60380078044CC00757
:104EC0003DD01DE000A50080683C01C0802200802C
:104ED00040A6008040420F0000210080407B02007D
:104EE000002D310130F600C0E0030004647D0200B3
:104EF0009A5C000408FC00C004F800C0EFFFFFFF4C
:104F00001CF054FF009020690B2188432061206928
:104F1000F16808432061A561FCF7B7F8FCF729F9AF
:104F2000F948C760F9490868082210430860F84842
:104F300001681143016000981CF03CFF06E0A56188
:104F4000FCF7A3F8FCF715F9EF48C7600DF33FF83D
:104F5000F048F149406D4861206910218843206183
:104F600006F399FFF8BDE94810B5C03801690B2276
:104F7000914301610169E94A92681143016100218D
:104F800081610AF095FA0DF0CFFE0AF0CCFADF4A03
:104F90001068082108431060DD4A1068084310605B
:104FA00010BDFFB583B004000027DD4D05F040FCC7
:104FB000002800D0022020F055F9060002D0F06849
:104FC000C004C00FFFF70EFF1CF0F0FE002202909D
:104FD000D448009200680822012101AB1DF086FD33
:104FE0000198002817D1D048002200684A2106F312
:104FF000E0FA002802D00C9800280CD0C549CB4B11
:10500000086E496EFF221840F932002311405940C2
:10501000584008430AD0BF48C44C016E426EFF237B
:10502000F93321401A404266016620E0002C2AD064
:105030000CF3A6FE00900498226863680F00101A13
:1050400000218B41009A19003B00121A8B410AD2B1
:10505000009A20686168801AB941069A0599FFF79D
:105060008DFE002806D1AD488169491C8161FFF79A
:1050700013FFE7E0A748626821688030C260816062
:1050800000F05FF90700A24A106808218843106009
:105090009E4A1068884310609C48C03801699F4A46
:1050A00004231940D1600169994301610169032218
:1050B0001143016143E09948416A491C6D1E4162F8
:1050C0003AD10500006A401C286205F0BBFB0028AD
:1050D000974812D08169816901690B22914301616E
:1050E0008B4A116808231943116001698B4AD26801
:1050F0001143016106F3CFFEA4E080698006800FB2
:10510000012802D12869401C2861FFF72CFF06F016
:10511000B5FD7F4A10680821884310607B4A1068FB
:10512000884310608248016904229143016101694A
:105130000322114301617A4D01200AF0E54F2B490A
:1051400001000000B04F00000004000084E8760C6D
:1051500065F97C4880698006800F0328B5D1002C52
:105160000DD000F0F8F806990700884202D805989B
:10517000874204D26E48C169491CC16168E06B482E
:105180004169694A5165022141616F48FBF7EAFEB6
:105190000CF32FFF61498031086B082290430863AC
:1051A00068480169102211430161614800780228B2
:1051B00001D1022500E04025002C02D000F0CBF800
:1051C0000700002F01D001200543002E04D00B2042
:1051D00080013018406900E00020012100F002FF4A
:1051E0000AF0C9FBE807C00F01D0FBF750FF4220CF
:1051F00005401BD068060AD51020FBF730FF1020B1
:10520000FBF739FF0420FBF7C5FFFBF7D4FFA80726
:105210000CD50125AD022800FBF721FF2800FBF784
:1052200030FF0A20FBF7B6FFFBF7C5FF404D01201A
:105230006860002C16D000F08EF80699884202D8DB
:10524000059988420ED2E869012109044018E861F5
:10525000FFF72CFEFFF71DFE02981CF0B5FD0020A5
:1052600007B0F0BD0AF035FCC02008F033FF02980B
:105270001CF0AAFD0022D2432F48009200680822A9
:10528000012101AB1DF03CFC0120E9E710B505F060
:10529000E3FA002803D026484068002801D0FFF731
:1052A00005FE10BDF8B51F4A224811680826B14313
:1052B00011601B4A1168B1431160224C21691C4DD9
:1052C00004273940A9602169B943216121690B2272
:1052D00011432161401E1AD1FFF74FFE06F0D8FCA2
:1052E00020693840A8602069B84320610D490868EA
:1052F000B04308600A490868B0430860A0698006A6
:10530000800F012802D16869401C68610948A169C1
:105310008906890F0329D9D1F8BD000080220080B9
:1053200000A7008000A30080683C01C000A50080A9
:1053300030F600C088130000302601C0B0F500C070
:105340001800040040A600801000100001207047E3
:105350000948407A704710B5FBF709FF0400FBF7D6
:10536000D2FE201A05D50549C86A401CC862002033
:1053700010BDFFF7C6FB10BD683C01C030F600C091
:10538000704710B5012403200CF37DFFFF49096B22
:105390000205090C0B05120D1B0D9A4204D12203C4
:1053A00010401140884200D10024200010BD24216B
:1053B0004143F74A10B58C180CF365FFE269010010
:1053C000D204C9040120D20CC90C8A4200D10020A9
:1053D00010BD10B502E00120FBF746FF0420FFF7E7
:1053E000E6FF0028F7D102E00120FBF73DFF052092
:1053F000FFF7DDFF0028F7D102E00120FBF734FFC3
:105400000620FFF7D4FF0028F7D1E24C0BE022F092
:105410009CEA002804D020680022622106F3D3F819
:105420000120FBF721FF0320FFF7C1FF0028EED189
:1054300010BDD948402110B517F37CEC10BDF8B56C
:105440000D00070024205043D14940224418390060
:10545000280017F3D4EB28001EF01AFF2800403074
:1054600017F30EED3900403120220D00009017F3A4
:10547000C6EB29882269A0690D00603D0026521EF6
:10548000904207D1E0680A1D824203D90500643DBD
:105490000E1A361D0098390020302A006431009021
:1054A00017F3ACEB002E06D00098616940194968EB
:1054B000320017F3A4EBF8BDFFB581B0002405005E
:1054C0000E001700052018F383FC4188B34A91426F
:1054D0001BD101004031286031600988403909043E
:1054E000090C0AD00F229201914206D8643038602C
:1054F000049820390124018007E005200EF3C8FC40
:105500000004000C05210CF3D1FE200005B0F0BD15
:1055100038B504001CF054FC05009C4840308069FC
:105520009B49000CC03148610520694618F367FCAF
:1055300000280BD04188994A914207D1984941806F
:1055400005222100FFF77BFF012400E0F2ED4496E5
:1055500001000000AC530000000400003B2D53BFCD
:10556000002428001CF03AFC200038BD38B50500A6
:105570008B48403000698B4C000C80342063042041
:10558000694618F346FC6B4619880905C90D0028C1
:10559000A16212D04021095A874A6039914207D945
:1055A0002800403017F376EC0021C943018003E066
:1055B00004222900FFF74DFF012038BD38B5040053
:1055C00077484030006A7749000CC0318863062074
:1055D000694618F31EFC00280BD0010040310A88F0
:1055E000682A01D968220A8006222100FFF731FFCC
:1055F000012038BD6B49F0B56C310A0068486C3247
:10560000006B040C08001430C46065484030006A28
:105610002705030C080054308363CE69012031054F
:105620000500090D3F0DB94200D1002501273F03B8
:1056300001003E403C40A64200D00021D2692943EF
:1056400015051E0504002D0D360DB54200D10024B0
:105650000C433A403B409A4200D000202043F0BD2A
:10566000F8B500210026554A4E481060544A4F486C
:105670001060544A37201060534AFF20401C1060CD
:10568000524A102010604748042280300261504A7C
:10569000426102225302836102624E4D052206637B
:1056A00012024562C2619A00C262494A4A4FCB0067
:1056B0005C1962600124A4021219491C0129EF50EF
:1056C000F5D3444BC900CC186260444A5A5035495E
:1056D0000622C0318A61424ACA6102221D008A62E2
:1056E000D20120350A62CD624A6200228A63012219
:1056F00012033B4B4A630022D40066197360FF33E8
:10570000384E5B1C521C012A2E51F5D3314CD2006D
:10571000203415196B603300A35005224263220028
:1057200028328263022253024A609E00C363103C07
:105730000E618C6000220B604A6122003832002129
:10574000CB001D196A600125AD025219491C0129BF
:10575000E750F5D3C9000B195A606750114903226D
:10576000CA66214A0A673722CA67AA104A67120125
:105770008A671E4E002106601B4F82600D00C160CB
:105780000421380017F30AEBE80081194F60FF3756
:1057900014497F1C6D1C362D3150F1D3042127E0B4
:1057A000C0A30080B0460004B0F500C0604800040B
:1057B000EFBE0000BAAB0000DC08000048BB0200EE
:1057C0004CBB020050BB020054BB020058BB02009D
:1057D000007B01C0B87201C0004000800050008012
:1057E000008401C000100080001B02C0007101C0D5
:1057F000380017F3D4EAE80081194F600F49104BC5
:10580000002531501D600E484030C461022484617F
:105810000B4AC10C403A51620A4F47610461116260
:1058200020374762046291625E633720186311611A
:105830000CF304F904488560F8BD00000000018005
:10584000C0A30080B87201C0C0A400809948142190
:1058500010B517F37AEA10BD70B505000E0001D13E
:10586000012070BD30898419607A217A00020843D2
:1058700001280DD1607B217B00020843032807D15A
:10588000002D11D0280022F06EE8002813D001E08E
:10589000002D03D0E87AA073A87AE073607A217AA9
:1058A0000002084301280AD100223100042000F040
:1058B000A6F9002803D1300017F308FFD0E7002035
:1058C00070BDF8B50D000400110000267A481F00D5
:1058D000320017F325FF0028206014D00221017345
:1058E0002168202008812068012120302860017271
:1058F000002141722868390A077341732968002022
:1059000088720126C8723000F8BD1CB50C00030077
:105910006422694601A8FFF7D4FF00280FD0009841
:1059200000210174002C417405D0019901234A7BA8
:105930001A434A738C61022181720021C17201985D
:105940001CBD10B5040008001100FFF7DEFF0028A1
:1059500003D001002000FFF77FFF10BD2D8C4A917E
:1059600001000000A85700000004000068F780D381
:105970000022F0E77CB5140005000B0064226946A4
:1059800001A8FFF7A8FF00280BD00098210A047493
:105990004174022181720021C17201992800FFF730
:1059A00065FF7CBD7CB5040015000B00FF22913221
:1059B000694601A8FFF78FFF002811D00098002149
:1059C0000174417406222900123017F32CE9009962
:1059D000082088720020C87201992000FFF746FF56
:1059E0007CBD7CB51C00160005000B00FF22913227
:1059F000694601A8FFF76FFF00280DD0009822002C
:105A00003100103017F30EE90098210A8472C17238
:105A100001992800FFF72AFF7CBD7CB514001E0009
:105A200005000B006422694601A8FFF754FF002817
:105A300011D00098210A04744174062231001230FA
:105A400017F3F0E80099082088720020C8720199C5
:105A50002800FFF70BFF7CBD70B50600108915000C
:105A6000841800222274200062740622123017F378
:105A7000DAE8E07AA17A000208430830A072000A4E
:105A8000E07229003000FFF7F1FE70BDFEB51D0089
:105A900006000F0014000B006422694601A8FFF7FE
:105AA0001AFF00280ED0742F0CD10098E521017444
:105AB00044740321857481720021C1720199300000
:105AC000FFF7D4FEFEBD0000003D01C0EC04000461
:105AD00070B50500008944191EF0CFFE00280AD0D9
